:020000040000FA
:0600000075EF0AF012008A
:0610000075EF0AF012007A
:021008001200D4
:021018001200C4
:02102A000000C4
:04102C00D9CFE6FF33
:10103000E1CFD9FF040EE126DE6ADD6ADECF00F0E3
:10104000DDCF01F0FD0EDBCF02F0FE0EDBCF03F0B3
:101050000250005C035001581AE2020EDB6A030ED4
:10106000DB6A020EDBCF00F0030EDBCF01F0C60E11
:10107000005C020E015806E2020EDB2A030E01E3B9
:10108000DB2AEFD7DF2A010E01E3DB2AD7D7040ED4
:10109000E15C02E2E16AE552E16EE552E7CFD9FF99
:1010A0001200956A8368120083840F0EE66EE66A6A
:1010B000BDDFE552E55283941200D9CFE6FFE1CFC0
:1010C000D9FFFE0EDB50F00B836E83808392320ECD
:1010D000E66EE66AABDFE552E552E6DFFE0EDB3890
:1010E000F00BF00B836E83808392320EE66EE66A1D
:1010F0009DDFE552E552D8DFE552E7CFD9FF120078
:10110000D9CFE6FFE1CFD9FFFE0EDB50F00B836EA7
:1011100083908392320EE66EE66A88DFE552E552EE
:10112000C3DFFE0EDB38F00BF00B836E83908392EF
:10113000320EE66EE66A7ADFE552E552B5DFE55239
:10114000E7CFD9FF1200010EE66EDADFE552320E6C
:10115000E66EE66A6BDFE552E5521200D9CFE6FF94
:10116000E1CFD9FF020EE126839083928394960EFD
:10117000E66EE66A5BDFE552E552300E836E8390E1
:101180008392320EE66EE66A51DFE552E5528CDF5D
:101190000F0EE66EE66A4ADFE552E552300E836EC8
:1011A00083908392320EE66EE66A40DFE552E552A6
:1011B0007BDF0F0EE66EE66A39DFE552E552300E50
:1011C000836E83908392320EE66EE66A2FDFE552DD
:1011D000E5526ADF0F0EE66EE66A28DFE552E55259
:1011E000200E836E83908392320EE66EE66A1EDFD7
:1011F000E552E55259DF0F0EE66EE66A17DFE5525B
:10120000E552280EE66E7CDFE5520F0EE66EE66ACA
:101210000DDFE552E5520F0EE66E72DFE5520F0E5E
:10122000E66EE66A03DFE552E552060EE66E68DF1B
:10123000E5520F0EE66EE66AF9DEE552E552020E61
:10124000E15C02E2E16AE552E16EE552E7CFD9FFE7
:101250001200800EE66E54DFE5520F0EE66EE66A6F
:10126000E5DEE552E5526AC06EF06BC06FF042D821
:101270000F0EE66EE66ADADEE552E552C00EE66E65
:101280003FDFE5520F0EE66EE66AD0DEE552E5522C
:101290006CC06EF06DC06FF02DD8E80EE66E030ED8
:1012A000E66EC4DEE552E55200D01200D9CFE6FF6B
:1012B000E1CFD9FFFE0EDB50F00B836E838083926B
:1012C000320EE66EE66AB2DEE552E552EDDEFE0E65
:1012D000DB38F00BF00B836E83808392320EE66E68
:1012E000E66AA4DEE552E552DFDE00D0E552E7CF44
:1012F000D9FF1200D9CFE6FFE1CFD9FF020EE126D8
:10130000DE6ADD6ADE5000016E250F01E96EDD50F8
:1013100000016F210F01EA6EEF5019E0DE5000016D
:101320006E250F01E96EDD5000016F210F01EA6E9D
:10133000EF50E66EBBDFE5520F0EE66EE66A76DE34
:10134000E552E552DF2A010E01E3DB2ADBD7020E6C
:10135000E15C03E200D0E16AE552E16EE552E7CFDD
:10136000D9FF1200D9CFE6FFE1CFD9FF240EE12645
:10137000D9CFE9FFDACFEAFF200EEE6EEE6E560E01
:10138000EE6E490EEE6E530EEE6E480EEE6E570E7A
:10139000EE6E410EEE6E4E0EEE6E490EEE6E4B0E82
:1013A000EE6E450EEE6E540EEE6E410EEE6E4E0E6D
:1013B000EE6E200EEE6EEE6EEE6AD950120FE96EF2
:1013C000DACFEAFF200EEE6EEE6EEE6EEE6E480E97
:1013D000EE6E650EEE6E6C0EEE6EEE6E6F0EEE6ED7
:1013E000200EEE6E3A0EEE6E2D0EEE6E290EEE6EA5
:1013F000200EEE6EEE6EEE6EEE6EEE6A52DEAEDE3B
:101400000001D950120F6C6FDACF6DF0D9CF6AF0AE
:10141000DACF6BF01EDFFFD7240EE15C02E2E16A57
:0C142000E552E16EE552E7CFD9FF120063
:04142C002A0EF66E20
:10143000100EF76E000EF86E00010900F550656F92
:101440000900F550666F03E1656701D03DD00900E2
:10145000F550606F0900F550616F0900F550626F3B
:1014600009000900F550E96E0900F550EA6E09001F
:1014700009000900F550636F0900F550646F090019
:101480000900F6CF67F0F7CF68F0F8CF69F060C0D9
:10149000F6FF61C0F7FF62C0F8FF0001635302E18D
:1014A000645307E00900F550EE6E6307F8E2640745
:1014B000F9D767C0F6FF68C0F7FF69C0F8FF000101
:0A14C0006507000E665BBFD712003F
:0614CA00000EF36E00EEBF
:1014D00000F0080E01D81200EA6002D0EE6AFCD7D4
:0A14E000F350E9601200EE6AFCD739
:0614EA0013EE00F023EEFA
:1014F00000F0F86A059C16EC0AF083EC0AF0B2ECF6
:0615000009F0FBD7120008
:021506001200D1
:00000001FF
