:020000040000FA
:0600000011EF09F01200EF
:0610000011EF09F01200DF
:021008001200D4
:021018001200C4
:02102A000000C4
:04102C00D9CFE6FF33
:10103000E1CFD9FF040EE126DE6ADD6ADECF0BF0D8
:10104000DDCF0CF0FD0EDBCF0DF0FE0EDBCF0EF092
:101050000D500B5C0E500C581AE2020EDB6A030EA8
:10106000DB6A020EDBCF0BF0030EDBCF0CF0C60EFB
:101070000B5C020E0C5806E2020EDB2A030E01E3A3
:10108000DB2AEFD7DF2A010E01E3DB2AD7D7040ED4
:10109000E15C02E2E16AE552E16EE552E7CFD9FF99
:1010A0001200D9CFE6FFE1CFD9FF060EE1269280EC
:1010B0009284010EC26E0E0EC16ECE0EC06E0F0E69
:1010C000E66EE66AB3DFE552E552936AC282C2B2C7
:1010D000FED7C350DE6EDD6AC450E66ED950020FF3
:1010E000E96EDACFEAFFE552E750EE6EED6A020EE6
:1010F000DBCF0BF0030EDBCF0CF00BC00CF00B6A58
:10110000020E0BC0DBFF030E0CC0DBFF020EDBCFB9
:101110000DF0030EDBCF0EF0DE500D100B6EDD5028
:101120000E100C6E020E0BC0DBFF030E0CC0DBFFBB
:10113000020EDBCF06F0030EDBCF07F0040E06C075
:10114000DBFF050E07C0DBFF040EDB508A6EBED747
:10115000060EE15C02E2E16AE552E16EE552E7CF9C
:04116000D9FF1200A1
:0C1164002A0EF66E100EF76E000EF86EEC
:1011700000010900F550656F0900F550666F03E145
:10118000656701D03DD00900F550606F0900F5504A
:10119000616F0900F550626F09000900F550E96EB2
:1011A0000900F550EA6E090009000900F550636F67
:1011B0000900F550646F09000900F6CF67F0F7CF1A
:1011C00068F0F8CF69F060C0F6FF61C0F7FF62C059
:1011D000F8FF0001635302E1645307E00900F55092
:1011E000EE6E6307F8E26407F9D767C0F6FF68C0E0
:1011F000F7FF69C0F8FF00016507000E665BBFD707
:021200001200DA
:0E120200000EF36E00EE00F0080E01D8120090
:10121000EA6002D0EE6AFCD7F350E9601200EE6A91
:02122000FCD7F9
:0E12220013EE00F023EE00F0F86A0A9CB2EC26
:0E12300008F01FEC09F051EC08F0FBD712009B
:02123E0012009C
:00000001FF
