:020000040000FA
:060000003CEF0CF01200C1
:061000003CEF0CF01200B1
:021008001200D4
:021018001200C4
:02102A000000C4
:04102C00D9CFE6FF33
:10103000E1CFD9FF040EE126DE6ADD6ADECF14F0CF
:10104000DDCF15F0FD0EDBCF16F0FE0EDBCF17F077
:101050001650145C175015581AE2020EDB6A030E84
:10106000DB6A020EDBCF14F0030EDBCF15F0C60EE9
:10107000145C020E155806E2020EDB2A030E01E391
:10108000DB2AEFD7DF2A010E01E3DB2AD7D7040ED4
:10109000E15C02E2E16AE552E16EE552E7CFD9FF99
:1010A0001200956A8368120083840F0EE66EE66A6A
:1010B000BDDFE552E55283941200D9CFE6FFE1CFC0
:1010C000D9FFFE0EDB50F00B836E83808392320ECD
:1010D000E66EE66AABDFE552E552E6DFFE0EDB3890
:1010E000F00BF00B836E83808392320EE66EE66A1D
:1010F0009DDFE552E552D8DFE552E7CFD9FF120078
:10110000D9CFE6FFE1CFD9FFFE0EDB50F00B836EA7
:1011100083908392320EE66EE66A88DFE552E552EE
:10112000C3DFFE0EDB38F00BF00B836E83908392EF
:10113000320EE66EE66A7ADFE552E552B5DFE55239
:10114000E7CFD9FF1200010EE66EDADFE552320E6C
:10115000E66EE66A6BDFE552E5521200D9CFE6FF94
:10116000E1CFD9FF020EE126839083928394960EFD
:10117000E66EE66A5BDFE552E552300E836E8390E1
:101180008392320EE66EE66A51DFE552E5528CDF5D
:101190000F0EE66EE66A4ADFE552E552300E836EC8
:1011A00083908392320EE66EE66A40DFE552E552A6
:1011B0007BDF0F0EE66EE66A39DFE552E552300E50
:1011C000836E83908392320EE66EE66A2FDFE552DD
:1011D000E5526ADF0F0EE66EE66A28DFE552E55259
:1011E000200E836E83908392320EE66EE66A1EDFD7
:1011F000E552E55259DF0F0EE66EE66A17DFE5525B
:10120000E552280EE66E7CDFE5520F0EE66EE66ACA
:101210000DDFE552E5520F0EE66E72DFE5520F0E5E
:10122000E66EE66A03DFE552E552060EE66E68DF1B
:10123000E5520F0EE66EE66AF9DEE552E552020E61
:10124000E15C02E2E16AE552E16EE552E7CFD9FFE7
:101250001200D9CFE6FFE1CFD9FFFE0EDB50F00B35
:10126000836E83808392320EE66EE66ADFDEE5529D
:10127000E5521ADFFE0EDB38F00BF00B836E838035
:101280008392320EE66EE66AD1DEE552E5520CDF5D
:1012900000D0E552E7CFD9FF1200D9CFE6FFE1CF6A
:1012A000D9FF2A0EE126D9500E0FE96EDACFEAFFF8
:1012B000410EEE6E440EEE6E430EEE6E200EEE6E9E
:1012C0004F0EEE6E2F0EEE6E500EEE6E200EEE6E88
:1012D000690EEE6E6E0EEE6E200EEE6E420EEE6E2D
:1012E000430EEE6E440EEE6E3A0EEE6EEE6A5A0E3F
:1012F000EE6EEE6EEE6EEE6ED950260FE96EDACF20
:10130000EAFF300EEE6EEE6EEE6EEE6ECADE26DF99
:101310001ADF92809284010EC26E0E0EC16ECE0E46
:10132000C06E0F0EE66EE66A81DEE552E552220ED1
:10133000DB6A230EDB6AD9500E0F146EDACF15F07C
:10134000220EDB501424E96E230EDB501520EA6ECA
:10135000EF501DE0D9500E0F146EDACF15F0220EAB
:10136000DB501424E96E230EDB501520EA6EEF509B
:10137000E66E6FDFE5520F0EE66EE66A57DEE55267
:10138000E552220EDB2A230E01E3DB2AD4D7C282E8
:10139000C2B2FED7C350DE6EDD6AC450E66ED950CD
:1013A000020FE96EDACFEAFFE552E750EE6EED6A22
:1013B000020EDBCF14F0030EDBCF15F014C015F0D6
:1013C000146A020E14C0DBFF030E15C0DBFF020E11
:1013D000DBCF16F0030EDBCF17F0DE501610146EC5
:1013E000DD501710156E020E14C0DBFF030E15C082
:1013F000DBFF020EDBCF06F0030EDBCF07F0040E9F
:1014000006C0DBFF050E07C0DBFF040EDBCF06F0D6
:10141000050EDBCF07F07BEC0AF0060E05C0DBFF04
:10142000070E06C0DBFF080E07C0DBFF090E08C071
:10143000DBFFC00EE66E64DEE552010EE66EE66A84
:10144000F5DDE552E552D950260FE66E000EDA20A2
:10145000E66E060EDBCF05F0070EDBCF06F0080EBA
:10146000DBCF07F0090EDBCF08F08EEC0AF006C0E8
:1014700014F007C015F014C0E6FF15C0E6FF43ECFA
:101480000BF0E552E552E552E552220EDB6A230EDF
:10149000DB6A220EDBCF14F0230EDBCF15F0D890E1
:1014A000155004E6040E145C000E155817E2D950CE
:1014B000260F146EDACF15F0220EDB501424E96EDD
:1014C000230EDB501520EA6EEF50E66EC2DEE552C9
:1014D000220EDB2A230E01E3DB2ADBD758D72A0EA4
:1014E000E15C02E2E16AE552E16EE552E7CFD9FF45
:0214F0001200E8
:0E14F2000F9E08D00F9E07AE05D0066C071E99
:10150000E86A07220F8E07C001F006C000F0136AD8
:10151000126A8E0E026E036AD9EF0AF00F6A15EC9A
:101520000BF00FB698EF0AF00FA20ED00FB405D053
:101530007F0E076EFF0E066E1FD0800E076E066AC6
:101540001BD0076A066A18D00FB0FBD78F0E086051
:10155000EDD77E0E0864F5D78E0E085C05E0D890B6
:1015600007320632082AF8D70FA406D0066C071EE9
:10157000E86A072207AEE5D712007F0E086EFF0E5D
:10158000076E066E056E12007F0E0FBEFF0E086E10
:1015900002D07F0E086E800E076E066A056AF3D7CA
:1015A0000FAE04D0800E086E076AF7D7086A076A84
:1015B000F4D70150001013101210F8E003BEF0D75A
:1015C00001BE0CD002500310EBE0D8901236133657
:1015D000003601360206D8A00306F2D70350D4E144
:1015E0000228D2E012AE11D07F0E121402E113A035
:1015F0000CD0132AE86A0022012207E3D8800132C6
:1016000000321332022A0228BFE00250C9E013C0A0
:1016100005F000C006F00134076E0230086E073294
:10162000089E0FBE088EC3EF0AF00736083602E3A5
:101630000F840F7E06E10F80086A076A066A056A52
:101640001200082803E0D88007321200D890073231
:1016500002E10F8212000F8612000C360D3602E3F3
:101660000F8C0F7E06E10F880D6A0C6A0B6A0A6AFE
:1016700012000D2803E0D8800C321200D8900C32F2
:06168000EAE10F8A1200EE
:0A168600D9CFE6FFDACFE6FFFA0E37
:10169000E3CFD9FFFB0EE3CFDAFFFD0EE35209E7FC
:1016A0002D0EDE6EFC0EE31EE32AFD0ED8B4E3061B
:1016B000E31EE652E652E652FD0EE124E76EFF0E0F
:1016C000E220E46EE652F70EE3CFE6FFF70EE3CF3B
:1016D000E6FFB3EC0BF0F90EE124E96EFF0EE22019
:1016E000EA6EA3EC0BF00AE1A0EC0BF009E1A3EC2D
:1016F0000BF008E1A0EC0BF007E108D0AEEC0BF02A
:10170000A9EC0BF0AEEC0BF0A9EC0BF0AEEC0BF08F
:10171000DE6AF90EE126FF0EE222FF0EE3CFDAFFCA
:10172000E552FF0EE3CFD9FFE552FC0EE124E96E4E
:10173000FF0EE220EA6EEECFF3FFEFCFF4FF1200D0
:10174000EF380F0B1200EF500F0B02E1EE52D8846E
:101750001200EF380F0B300FDE6E1200EE500F0B41
:10176000300FDE6E1200FC0EE3CFE9FFFD0EE3CF7B
:10177000EAFF100EE66EEE6AEE6AEF6AD890FD0E92
:10178000E336FE0EE336ED36ED36EF36FF0EE306BA
:1017900009E0D4EC0BF0EE52D4EC0BF0EE52D4ECAA
:1017A0000BF0EDD7E56E1200030EEF24E8B6EF6EF6
:0A17B000300EEF24E8BEEF6E000CCF
:0617BA002A0EF66E100E6F
:1017C000F76E000EF86E00010900F550656F090014
:1017D000F550666F03E1656701D03DD00900F55013
:1017E000606F0900F550616F0900F550626F0900E4
:1017F0000900F550E96E0900F550EA6E090009008C
:101800000900F550636F0900F550646F0900090085
:10181000F6CF67F0F7CF68F0F8CF69F060C0F6FF59
:1018200061C0F7FF62C0F8FF0001635302E1645337
:1018300007E00900F550EE6E6307F8E26407F9D798
:1018400067C0F6FF68C0F7FF69C0F8FF00016507D1
:08185000000E665BBFD7120019
:08185800000EF36E00EE00F03B
:10186000080E01D81200EA6002D0EE6AFCD7F350ED
:08187000E9601200EE6AFCD7EA
:0818780013EE00F023EE00F076
:10188000F86A0F9CDDEC0BF04AEC0CF04DEC09F023
:04189000FBD7120070
:02189400120040
:00000001FF
