:020000040000FA
:06000000C7EF08F012003A
:02102A000000C4
:04102C00D9CFE6FF33
:10103000E1CFD9FF040EE126DE6ADD6A020EDB6A2B
:10104000030EDB6AD59ED59CD59AD596D584D582DC
:10105000D580F29EF29AF294D58E92989390D9CF41
:1010600002F0DACF03F0020E02C0DBFF030E03C072
:10107000DBFF020EDBCFE9FF030EDBCFEAFFD6CFAB
:10108000EFFF020EDB2A030E01E3DB2A020EDBCFA9
:10109000E9FF030EDBCFEAFFD7CFEFFFDECF02F091
:1010A000DDCF03F0910E025C5B0E035806E38978F6
:1010B0008A70DE6ADD6AD76AD66AD1D7040EE15C2F
:1010C00002E2E16AE552E16EE552E7CFD9FF120094
:1010D0002A0EF66E100EF76E000EF86E0001090073
:1010E000F550656F0900F550666F03E1656701D043
:1010F0003DD00900F550606F0900F550616F09009F
:10110000F550626F09000900F550E96E0900F550CD
:10111000EA6E090009000900F550636F0900F550F7
:10112000646F09000900F6CF67F0F7CF68F0F8CFD9
:1011300069F060C0F6FF61C0F7FF62C0F8FF000110
:10114000635302E1645307E00900F550EE6E630754
:10115000F8E26407F9D767C0F6FF68C0F7FF69C017
:0E116000F8FF00016507000E665BBFD71200A6
:02116E00000E71
:10117000F36E00EE00F0080E01D81200EA6002D013
:0E118000EE6AFCD7F350E9601200EE6AFCD76D
:02118E0013EE5E
:1011900000F023EE00F0F86A019C68EC08F0D5EC52
:0A11A00008F016EC08F0FBD712006F
:0211AA00120031
:020000040030CA
:0100000024DB
:010001000EF0
:0100020039C4
:010003001EDE
:010005008377
:010006008178
:010008000FE8
:00000001FF
