:020000040000FA
:0600000089EF08F0120078
:08000800DACFE4FFE2CFDAFFDA
:10001000E6529EAA04D09EA802D0AE50AD6EE55224
:06002000E5CFDAFF11003C
:02102A000000C4
:04102C002A0EF66E24
:10103000100EF76E000EF86E00010900F550656F96
:101040000900F550666F03E1656701D03DD00900E6
:10105000F550606F0900F550616F0900F550626F3F
:1010600009000900F550E96E0900F550EA6E090023
:1010700009000900F550636F0900F550646F09001D
:101080000900F6CF67F0F7CF68F0F8CF69F060C0DD
:10109000F6FF61C0F7FF62C0F8FF0001635302E191
:1010A000645307E00900F550EE6E6307F8E2640749
:1010B000F9D767C0F6FF68C0F7FF69C0F8FF000105
:0A10C0006507000E665BBFD7120043
:0610CA0002D8FFD712005E
:1010D000AC9CAC8AAC98AC94AB8EAB9CAB88B8960D
:1010E0004D0EAF6E949C948ED09EF28EF28C9D8AA3
:0210F0001200EC
:0E10F200000EF36E00EE00F0080E01D81200A2
:10110000EA6002D0EE6AFCD7F350E9601200EE6AA2
:02111000FCD70A
:0E11120013EE00F023EE00F0F86A019C16ECDC
:0E11200008F097EC08F065EC08F0FBD7120021
:02112E001200AD
:020000040030CA
:0100000004FB
:010001000EF0
:0100020019E4
:010003001EDE
:010005008377
:010006008178
:010008000FE8
:00000001FF
