:020000040000FA
:0600000036EF09F01200CA
:0610000036EF09F01200BA
:0610080016EF08F01200D3
:021018001200C4
:02102A000000C4
:04102C00DACFE4FF34
:10103000E2CFDAFFE9CFE4FFEACFE4FFF6CFE4FF47
:10104000F7CFE4FFF5CFE4FFF3CFE4FFF4CFE4FF05
:10105000FACFE4FF00EE04F0020EE80403E3EECF63
:10106000E4FFFBD700EE00F0040EE80403E3EECF4C
:10107000E4FFFBD7E652D9CFE6FFE1CFD9FF040E5C
:10108000E126D768F00ED66E300E896E640EE66EDD
:10109000E66A37D8E552E552896A640EE66EE66A7A
:1010A00030D8E552E552F294040EE15C02E2E16AC6
:1010B000E552E16EE552E7CFD9FFE55200EE03F0CD
:1010C000040EE80403E3E5CFEDFFFBD700EE05F0E7
:1010D000020EE80403E3E5CFEDFFFBD7E5CFFAFF0F
:1010E000E5CFF4FFE5CFF3FFE5CFF5FFE5CFF7FF61
:1010F000E5CFF6FFE5CFEAFFE5CFE9FFE5CFDAFF81
:101100001100D9CFE6FFE1CFD9FF040EE126DE6A58
:10111000DD6ADECF00F0DDCF01F0FD0EDBCF02F0A7
:10112000FE0EDBCF03F00250005C035001581AE2C0
:10113000020EDB6A030EDB6A020EDBCF00F0030E49
:10114000DBCF01F0C60E005C020E015806E2020E73
:10115000DB2A030E01E3DB2AEFD7DF2A010E01E3CE
:10116000DB2AD7D7040EE15C02E2E16AE552E16EC8
:10117000E552E7CFD9FF1200D9CFE6FFE1CFD9FF83
:10118000E652926A070ED56ED768F00ED66EF294CC
:10119000F28AD58EF28E010EE66EE66AB2DFE55275
:0E11A000E552FFD7E552E552E7CFD9FF120026
:0211AE002A0E07
:1011B000F66E100EF76E000EF86E00010900F55085
:1011C000656F0900F550666F03E1656701D03DD09A
:1011D0000900F550606F0900F550616F0900F55086
:1011E000626F09000900F550E96E0900F550EA6EDA
:1011F000090009000900F550636F0900F550646F9C
:1012000009000900F6CF67F0F7CF68F0F8CF69F072
:1012100060C0F6FF61C0F7FF62C0F8FF00016353D2
:1012200002E1645307E00900F550EE6E6307F8E24F
:101230006407F9D767C0F6FF68C0F7FF69C0F8FF19
:0C12400000016507000E665BBFD71200BE
:04124C00000EF36E2F
:1012500000EE00F0080E01D81200EA6002D0EE6A3B
:0C126000FCD7F350E9601200EE6AFCD7E6
:04126C0013EE00F08D
:1012700023EE00F0F86A059CD7EC08F044EC09F086
:08128000BCEC08F0FBD71200E2
:02128800120052
:00000001FF
