:020000040000FA
:06000000F0EF0BF012000E
:06100000F0EF0BF01200FE
:021008001200D4
:021018001200C4
:02102A000000C4
:04102C000D7E0F6ABC
:1010300000EC0AF018EC0AF00FB6A8EF09F00FA2C6
:101040000AD00FAA03D00FBEA8EF09F00FA4B4EF87
:1010500009F0B1EF09F00FAA05D00FACB4EF09F019
:10106000B1EF09F00FA00AD00FA808D00FBE04D02E
:101070000FA402D0BDEF09F0C1EF09F0126A036AB4
:101080000D50085C116E10E305C013F006C000F0AF
:1010900007C001F008C010F00AC005F00BC006F050
:1010A0000CC007F00F3A09D00AC013F00BC000F0D3
:1010B0000CC001F00DC010F0116C0F9E0FBC0F8E14
:1010C00010C002F00FB0F0EF09F01A0E1160F0EF4F
:1010D00009F0026A086A0FA408D0056C061E071EF4
:1010E000081EE86A0622072208220FAC08D0136CFB
:1010F000001E011E021EE86A002201220222046A6A
:10110000115207E008340732063205320432112E3C
:10111000F9D7055013260650002207500122085027
:10112000022204C012F00F9E02AE0BD0126C131EEE
:10113000001E011E021EE86A132200220122022262
:101140000F8E02A006D0D880013200321332123244
:10115000102A10C002F0C4EF09F00F6A00EC0AF088
:1011600018EC0AF00FB6A8EF09F00FA205D00FB8DF
:10117000A8EF09F0AFEF09F00FAA05D00FB0A8EF64
:1011800009F0AFEF09F00FB002D00FA802D0BBEF0B
:1011900009F0036A0D500824026EE86A03227E0EED
:1011A000025EE86A035A126A136A006A016A0C5006
:1011B0000702F4CF01F0F3CF00F00B500702F35019
:1011C0001326F4500022000E01220C500602F350A8
:1011D0001326F4500022000E01220A500702F35099
:1011E0001226F4501322000E002201220B50060298
:1011F000F3501226F4501322000E002201220C504C
:101200000502F3501226F4501322000E0022012290
:101210000A500602F4501226000E13220022012268
:101220000B500502F4501226000E13220022012258
:10123000C4EF09F00F6A00EC0AF00FB624EF09F0D2
:101240000FA20AD00FB403D07F0E076E19D0800E04
:10125000076E16D0076A14D00FB0FCD7870E08604F
:10126000F1D77E0E0864F6D7860E085C04E0D890AD
:101270000732082AF9D70FA403D0076C07AEEAD7C4
:10128000120053EC09F00FB6000C0FB0000C0FB4B5
:10129000000C010C53EC09F00FB6000C0FB0000C61
:1012A0000FA4000C010C0F6A00EC0AF018EC0AF015
:1012B0000FB612000FAE08D00FA004D00FA802D0B6
:1012C0000F8012000F9012000D50085C0BE10C50C3
:1012D000075C08E10B50065C05E10A50055C02E181
:1012E0000F801200D8A002D00F8E10D008500DC071
:1012F00008F00D6E07500CC007F00C6E06500BC0C6
:1013000006F00B6E05500AC005F00A6E0D50085C21
:1013100010E0FF0F09E00F900FB403D00FAE0F8461
:1013200012000FAE0F9412000D2AD8900C320B321F
:101330000A320A50055E0B50065A0C50075A07BE77
:10134000EAD7D890053606360736082EF8D7C8D71C
:101350007F0E086EFF0E076E066E056E12007F0E82
:101360000FBEFF0E086E02D07F0E086E800E076E55
:10137000066A056AF3D70FAE04D0800E086E076ABE
:10138000F7D7086A076AF4D701500010131012103B
:10139000F8E003BEF0D701BE0CD002500310EBE022
:1013A000D89012361336003601360206D8A003064E
:1013B000F2D70350D4E10228D2E012AE11D07F0E52
:1013C000121402E113A00CD0132AE86A00220122B1
:1013D00007E3D880013200321332022A0228BFE02C
:1013E0000250C9E013C005F000C006F00134076EDA
:1013F0000230086E0732089E0FBE088EAEEF09F06D
:101400000736083602E30F840F7E06E10F80086A74
:10141000076A066A056A1200082803E0D8800732C6
:101420001200D890073202E10F8212000F861200DC
:101430000C360D3602E30F8C0F7E06E10F880D6A25
:101440000C6A0B6A0A6A12000D2803E0D8800C327D
:0C1450001200D8900C32EAE10F8A120062
:04145C00D9CFE6FFFF
:10146000E1CFD9FF040EE126DE6ADD6ADECF14F09B
:10147000DDCF15F0FD0EDBCF16F0FE0EDBCF17F043
:101480001650145C175015581AE2020EDB6A030E50
:10149000DB6A020EDBCF14F0030EDBCF15F0C60EB5
:1014A000145C020E155806E2020EDB2A030E01E35D
:1014B000DB2AEFD7DF2A010E01E3DB2AD7D7040EA0
:1014C000E15C02E2E16AE552E16EE552E7CFD9FF65
:1014D0001200D9CFE6FFE1CFD9FF080EE126DE6A80
:1014E000DE6A700EDE6E410EDD6EDD52DD52040EE0
:1014F000DB6A050EDB6A060EDB6A070EDB6A956A9D
:10150000040EDBCF14F0050EDBCF15F0060EDBCF9B
:1015100016F0070EDBCF17F00A6A0B6A700E0C6E1E
:10152000410E0D6E14C005F015C006F016C007F090
:1015300017C008F04AEC09F0010A66E1146A156A5E
:10154000700E166E410E176EDECF05F0DECF06F080
:10155000DECF07F0DDCF08F0DD52DD52040EDBCF29
:101560000AF0050EDBCF0BF0060EDBCF0CF0070EFA
:10157000DBCF0DF0ADEC08F005C018F006C019F097
:1015800007C01AF008C01BF018C00AF019C00BF011
:101590001AC00CF01BC00DF014C005F015C006F009
:1015A00016C007F017C008F017EC08F01AEC09F0A5
:1015B0000750836E040EDBCF14F0050EDBCF15F061
:1015C000060EDBCF16F0070EDBCF17F0CD0E0A6E3E
:1015D000CC0E0B6E0C6E3D0E0D6E14C005F015C0DA
:1015E00006F016C007F017C008F017EC08F0040E5C
:1015F00005C0DBFF050E06C0DBFF060E07C0DBFFE4
:10160000070E08C0DBFF7CD7040EDBCF14F0050EFD
:10161000DBCF15F0060EDBCF16F0070EDBCF17F091
:101620000A6A0B6A0C6A0D6A14C005F015C006F050
:1016300016C007F017C008F041EC09F0010A66E196
:10164000146A156A700E166E410E176EDECF05F025
:10165000DECF06F0DECF07F0DDCF08F0DD52DD5241
:10166000040EDBCF0AF0050EDBCF0BF0060EDBCF4E
:101670000CF0070EDBCF0DF0ADEC08F005C018F054
:1016800006C019F007C01AF008C01BF018C00AF015
:1016900019C00BF01AC00CF01BC00DF014C005F0FF
:1016A00015C006F016C007F017C008F017EC08F0D8
:1016B0001AEC09F00750836E040EDBCF14F0050E10
:1016C000DBCF15F0060EDBCF16F0070EDBCF17F0E1
:1016D000CD0E0A6ECC0E0B6E0C6E3D0E0D6E14C050
:1016E00005F015C006F016C007F017C008F016EC9C
:1016F00008F0040E05C0DBFF050E06C0DBFF060E7A
:1017000007C0DBFF070E08C0DBFF7ED7F9D6080E47
:10171000E15C02E2E16AE552E16EE552E7CFD9FF12
:021720001200B5
:0E1722002A0EF66E100EF76E000EF86E000125
:101730000900F550656F0900F550666F03E16567B4
:1017400001D03DD00900F550606F0900F550616F80
:101750000900F550626F09000900F550E96E0900B3
:10176000F550EA6E090009000900F550636F0900A1
:10177000F550646F09000900F6CF67F0F7CF68F005
:10178000F8CF69F060C0F6FF61C0F7FF62C0F8FFF4
:101790000001635302E1645307E00900F550EE6E67
:1017A0006307F8E26407F9D767C0F6FF68C0F7FF80
:1017B00069C0F8FF00016507000E665BBFD7120025
:1017C000000EF36E00EE00F0080E01D81200EA6081
:1017D00002D0EE6AFCD7F350E9601200EE6AFCD743
:1017E00013EE00F023EE00F0F86A0F9C91EC0BF082
:0C17F000FEEC0BF069EC0AF0FBD71200D5
:0217FC001200D9
:00000001FF
